:020000040800F2
:10000000880A002055010008810900084B050008F6
:1000100000000000000000000000000000000000E0
:10002000000000000000000000000000E5090008DA
:10003000000000000000000085090008E909000830
:100040006701000800000000670100086701000860
:1000500067010008670100086701000867010008E0
:100060000000000067010008670100086701000840
:100070006701000867010008670100080000000030
:100080006701000800000000000000006701000890
:100090000000000067010008670100085105000822
:1000A0000000000067010008000000006701000870
:1000B00000F002F800F03EF80CA030C80838241810
:1000C0002D18A246671EAB4654465D46AC4201D190
:1000D00000F030F87E460F3E0FCCB6460126334284
:1000E00000D0FB1AA246AB4633431847440C00002D
:1000F000640C0000103A02D378C878C1FAD85207CD
:1001000001D330C830C101D504680C6070470000CD
:100110000023002400250026103A01D378C1FBD823
:10012000520700D330C100D50B6070471FB51FBD0B
:1001300010B510BD00F0FAF81146FFF7F7FF00F018
:1001400097FD00F012F903B4FFF7F2FF03BC00F0D3
:1001500019F900000748804707480047FEE7FEE717
:10016000FEE7FEE7FEE7FEE704480549054A064BC1
:1001700070470000710A0008B100000888040020E0
:10018000880A0020880600208806002001E004C0BC
:10019000091F0429FBD28B0701D50280801CC907E7
:1001A00000D00270704700290BD0C30702D0027044
:1001B000401C491E022904D3830702D50280801CFB
:1001C000891EE3E70022EEE70022DFE700220309B1
:1001D0008B422CD3030A8B4211D300239C464EE062
:1001E00003460B433CD4002243088B4231D303091E
:1001F0008B421CD3030A8B4201D394463FE0C309D0
:100200008B4201D3CB01C01A524183098B4201D3E7
:100210008B01C01A524143098B4201D34B01C01AD2
:10022000524103098B4201D30B01C01A5241C3084A
:100230008B4201D3CB00C01A524183088B4201D3B9
:100240008B00C01A524143088B4201D34B00C01AA5
:100250005241411A00D201465241104670475DE0BA
:10026000CA0F00D04942031000D34042534000223D
:100270009C4603098B422DD3030A8B4212D3FC22E6
:10028000890112BA030A8B420CD3890192118B4265
:1002900008D3890192118B4204D389013AD092117B
:1002A00000E08909C3098B4201D3CB01C01A524136
:1002B00083098B4201D38B01C01A524143098B42FF
:1002C00001D34B01C01A524103098B4201D30B01E8
:1002D000C01A5241C3088B4201D3CB00C01A52410D
:1002E00083088B4201D38B00C01A5241D9D24308F4
:1002F0008B4201D34B00C01A5241411A00D2014631
:10030000634652415B10104601D34042002B00D59A
:100310004942704763465B1000D3404201B500205C
:10032000C046C04602BD704770477047754600F032
:1003300025F8AE46050069465346C008C00085460C
:1003400018B020B5FFF710FF60BC00274908B6467B
:100350000026C0C5C0C5C0C5C0C5C0C5C0C5C0C5D4
:10036000C0C5403D49008D46704710B50446C046A3
:10037000C0462046FFF7E7FE10BD0000004870476A
:100380002404002001491820ABBEFEE7260002002D
:100390007047000010B504463421884301D1002C79
:1003A00003D1034903A000F00DFC0A48C46010BD4E
:1003B0008A0400002E2E5C436F72655C5372635C8E
:1003C00073746D3332663078785F666C6173682E53
:1003D0006300000000200240F8B505461F20C0065B
:1003E00010492818884204D9FF2107310EA000F0D7
:1003F000E9FB0B273F04384600F096F804280FD19C
:10040000114C20690226304320616561206940213A
:1004100008432061384600F087F82169B143216123
:10042000F8BD0000FFFF00002E2E5C436F72655C7C
:100430005372635C73746D3332663078785F666CC8
:100440006173682E63000000002002400849042008
:10045000CA68D20701D001207047CA68D20601D508
:1004600002207047C9684907FBD503207047000088
:100470000020024002480169802211430161704757
:1004800000200240F8B50546002000900E461F20CF
:10049000C00613492818884204D9FF214F3111A002
:1004A00000F090FB0B273F04384600F03DF804288D
:1004B00015D1144C20690121084320612E80384653
:1004C00000F032F8042806D1AD1C300C00952880CD
:1004D000384600F029F82169490849002161F8BD32
:1004E000FFFF00002E2E5C436F72655C5372635CED
:1004F00073746D3332663078785F666C6173682E22
:10050000630000000020024004480169090603D589
:1005100003494160034941607047000000200240E8
:1005200023016745AB89EFCD00B50346FFF78EFF8A
:1005300002E0FFF78BFF5B1E012803D0002B00D1E8
:10054000052000BD002BF4D1FAE700F02DFB0000E0
:10055000F0B52B4882690823150700242949002D8E
:1005600015DAC5691D43C5618569ED0305D50568C3
:10057000022635430560032503E0066804252E4363
:1005800006600D70056820263543056012E095076A
:1005900010D455070ED5456A1B4E4F88F5550425D6
:1005A0000D704D886D1C4D804D888126F600B5423A
:1005B00000D34C8092060125002A1FDAC66920224A
:1005C0001643C6610E78032E0ED0042E0BD14C803C
:1005D0000D700168914301604168920211434160CE
:1005E000016819430160F0BDC269FF2531352A4316
:1005F000C26102681A4302600C70F0BD8D80F0BDCC
:1006000000540040000000201C00002010B500F045
:10061000DBFA002813D00B4C20680B49084061041A
:1006200088420BD100F0B0F961680848C160C16828
:100630000161216881F308880069804710BD00F0DE
:10064000A5FA0000001000080000FE2F00000020A6
:1006500008B504494A6902434A6149690140009169
:1006600008BD00000010024008B50449CA690243F1
:10067000CA61C9690140009108BD00000010024034
:10068000F0B500244DE00123A3401A4048D04B6848
:10069000012B01D0022B10D18E688568134653437D
:1006A0005F00DF19BD4373431D438560CD680B6850
:1006B00046689E436B431E4346600F69C6681346F7
:1006C00053435D005D19AE435F433E43C6604E68D1
:1006D000022E1FD1FF2A0ED817464A69066A944691
:1006E0001A467A437A431701BF1ABE4367467A43D4
:1006F000164306620EE0160A324672434F69724391
:100700007243BC461601B71A466ABE4367467A432F
:10071000164346624A6806685343AE431E4306606A
:10072000641C0A681346E340ADD10020F0BD000010
:100730000146084A0020914209D1074901220B696C
:10074000520513430B610B6993430B617047012002
:1007500070470000005400400010024030B50268AD
:100760005208520002608C68CA6803681F252D0277
:100770001202AB432243134303604A6802610268DA
:1007800001231A43026083680122D20393438360EA
:100790008C690B6985682343ED0AED021D43856072
:1007A0000B69002B02D08368134383600C680368D5
:1007B00003252D05AB43234303604B6941689143F7
:1007C00019434160002030BD10B57D21C900FFF7FD
:1007D000FDFC0449401E4861002088610520086135
:1007E00010BD000000E000E0054801210269090792
:1007F0000A43026102698A430261002070470000D7
:100800000010024018B52048016801221143016020
:1008100001688907C90FFBD00168F8229143802342
:10082000194301600021C9431849009141600C241B
:1008300041682142FCD10168154C214000910160C2
:1008400001688901C90FFBD101680124A404A143F7
:10085000016000214160446B94431C434463426B3C
:10086000520852004263426B04239A434263C162BE
:100870000163BF221204009282608160416A9A057E
:1008800011434162002018BD001002400CF8FFF037
:10089000FFFFF6FE014908607047000018000020C5
:1008A000F0B58DB01C2106A8FFF78EFC1821684614
:1008B000FFF78AFC01204004FFF7CAFE0120002553
:1008C000400202240326012769460495D1C1042071
:1008D000059009206946C006FFF7D2FE600269460E
:1008E0000495D1C10420059009206946C006FFF790
:1008F000C7FE2005FFF7B8FE0021172000F024F9FD
:10090000172000F015F9124CE068E1138843E0600D
:1009100020680901884320602168780481432160B0
:100920000C480790A82006950A90089509950B9504
:1009300006A90C952046FFF711FF60687906084369
:100940006060E06804490840E0600DB0F0BD000060
:10095000005400400B02000001F8FFFF10B5074BE8
:100960009A68012422439A60002202E0845C1C7091
:10097000521C8A42FAD31868C04310BD00300240AE
:1009800000F012F97047000010B5134C2046FFF735
:10099000CFFE6068012149068843606020684008F6
:1009A0004000206020680821884320600B48002117
:1009B00001610B4802689207920F02608160C1607A
:1009C000016141618169821511438161FFF71AFF5D
:1009D000FFF70AFF10BD00000054004000E000E0F7
:1009E000000001407047000002480168491C016096
:1009F000704700001400002070B51A4801684908CB
:100A0000490001600168C907C90FFBD1164C206875
:100A100001210843206020688007C00FFBD02068B8
:100A2000F82188438021084320606068F0218843D2
:100A30006060606807210902884360606068800820
:100A4000800060600C2160680842FCD1074D284698
:100A5000FFF7BAFE2846FFF71DFF206B10218843E1
:100A6000206370BD002002400010024000127A0096
:100A700070470000F8B52C48082504790026417815
:100A800009060C438178C2780904120211430C4311
:100A9000E90167182549032261181203914241D2E6
:100AA00041798079090208180004000C2FD0FFF763
:100AB0002BFD3420FFF76EFC04E07D200002761C45
:100AC00086422DD82046FFF787FC0428F5D11CE08C
:100AD0001549485D49194A78120210438A78C97845
:100AE000120409060A4310430026009004E07D200A
:100AF0008001761C864213D820460099FFF7C2FC7D
:100B00000428F4D12D1DADB2241DBC42E0D3002039
:100B1000054981220346D2000B54401C9042FBD36E
:100B2000FFF7A8FCF8BD00001C00002000F0FFF754
:100B3000002805DBC106C90E012088400149086074
:100B40007047000000E100E08307FF22DB0E9A40BF
:100B50008907090E9940002808DB830809489B0093
:100B60001B18186890430843186070470007000F6F
:100B70000838830804489B001B18D8699043084331
:100B8000D861704700E400E000ED00E0BFF34F8F54
:100B900004490348C860BFF34F8F00BFFDE7000062
:100BA0000400FA0500ED00E0BFF34F8F044903484D
:100BB000C860BFF34F8F00BFFDE700000400FA05D7
:100BC00000ED00E07047000010B5084A05480649EE
:100BD000D46BFFF7C3FE844201D1012010BD002079
:100BE00010BD000000100008FC2B0000C03B0008F6
:100BF0001A4C01256069A168884201D9FFF706FDFA
:100C000020780128F6D11649C0050860BFF34F8F40
:100C1000BFF36F8F002020701248007860706078FA
:100C2000062802D0772809D106E060690E494018ED
:100C3000A060FFF71FFF01E0FFF7E8FC1720FFF7B8
:100C400077FF0A48026808210A43026002682A43C3
:100C5000026002680A430260CCE700000000002046
:100C600080E100E01C00002060EA00000054004029
:100C700008B528480025826901210A4382618069FC
:100C8000084000900807FFF7EFFC03210C1F2046E7
:100C9000FFF75AFFFFF7B0FE1F487D21C900260A63
:100CA0000068FFF793FA01271C49401E01E0FFF797
:100CB0006DFFB04203D96D1C8D42FAD9F7E7184D8C
:100CC000686103212046FFF73FFF0020A86107204D
:100CD00028614020FFF7BCFC124820228168602375
:100CE000994311438160816880229143114381605F
:100CF0000461FFF7D5FD0C480168394301600168C4
:100D000008221143016009484169FF31F5318160D2
:100D1000FFF76EFF0010024018000020E02E0000D8
:100D200000E000E0003002400054004000000020DD
:100D3000500D0008000000201C000000F400000816
:100D40006C0D00081C0000206C0A00001001000857
:100D50000000000000000000000000000000000093
:100D6000000000000000000000127A00FFFFFFFFFB
:100D7000FFFFFFFFFFFFFFFFFFFFFFFFFFFFFFFF83
:100D8000FFFFFFFFFFFFFFFFFFFFFFFFFFFFFFFF73
:100D9000FFFFFFFFFFFFFFFFFFFFFFFFFFFFFFFF63
:100DA000FFFFFFFFFFFFFFFFFFFFFFFFFFFFFFFF53
:100FF000FFFFFFFFFFFFFFFFFFFFFFFFFFFFFF01FF
:10100000100E0020C5100008BD230008791F00083D
:1010100000000000000000000000000000000000D0
:10102000000000000000000000000000C3230008D2
:101030000000000000000000C12300087526000821
:10104000D710000800000000D7100008D7100008D3
:10105000D7100008D7100008D7100008D7100008D4
:1010600000000000D7100008D7100008D7100008B3
:10107000D7100008D7100008D710000800000000A3
:10108000D71000080000000000000000D710000882
:1010900000000000D7100008D71000087D1F0008CE
:1010A00000000000D710000800000000D710000862
:1010B0000348854600F0CEFB00480047F5320008A3
:1010C000100E00200448804704480047FEE7FEE772
:1010D000FEE7FEE7FEE7FEE72D270008B110000857
:1010E00030B50B46014600202022012409E00D46C0
:1010F000D5409D4205D31D469540491B2546954048
:1011000040191546521E002DF1DC30BDF0B51FB45C
:101110000646002082B005464024019100901BE065
:10112000019922460F46304600F020F8049A059BAC
:10113000801A994110D310461946224600F072F9E0
:10114000361A8F410197224601200021009F00F0AE
:1011500069F938184D4100902046641E0028DFDCF4
:10116000019B00982946324607B0F0BD10B5202AF1
:1011700004DB0846203AD040002110BD0B46D34086
:10118000D0402024A21A91400843194610BD0346BE
:101190000B439B0703D009E008C9121F08C0042AAB
:1011A000FAD203E00B780370401C491C521EF9D29E
:1011B0007047D2B201E00270401C491EFBD270475A
:1011C0000022F6E710B513460A4604461946FFF713
:1011D000F0FF204610BDF8B502464A40D40F420049
:1011E0004B0052085B089A4202D20246084611465A
:1011F0004A0023D0C30D4A00DDB2120EAD1A202DD5
:1012000035DA49020126490AF6058A19002C00D070
:10121000524220214F1B1146B9402A411018C20DDD
:101220009A4221D0002C17D0012D08DCDA05801A53
:10123000D20F8019D207DBB200F00CF9F8BDDA0545
:10124000801A012340001B06C01880185A428018DB
:10125000CA0F1043490007E04908C2071143DA05E5
:10126000801A80194008801800F0ECF8F8BD610081
:101270000122511A001BF7E70122D2075140AAE7C9
:101280000122D2075040A6E7024670B54A40D30F6C
:10129000DB0740002DD04A002AD0010E140E0002B8
:1012A00012020919400A520A8418E50104465443FF
:1012B000000A120A2E045043A4194219200CC543F7
:1012C000AA18120C0125AD03521C521912047F39C1
:1012D000240400D0521C104301D44000491EC2B265
:1012E0000C06C0092018401C4008802A02D003E0E8
:1012F000002070BD40084000002900DA002018439B
:1013000070BD70B502464A40D50F40004A00ED0757
:1013100040085208002814D0002A12D0C40DD30D62
:1013200041020120C0055202490A520AE41A091872
:1013300012187D34914201D3641C00E04900002C56
:1013400001DA002070BD0023914201D3891A0343C2
:10135000400849000028F7D100290AD0914202D163
:101360000121C90705E0914201D2012101E00121DB
:10137000C943E005C018401900F064F870BDC217F9
:10138000C10F504010B54018CA079623002100F045
:1013900061F810BD10B500229623114600F05AF8EE
:1013A00010BDC20F410040020123400ADB05D207F5
:1013B000090EC0187F2901DA00207047962903DC46
:1013C0009623591AC84001E096398840002AF4D083
:1013D00040427047C20FD207400040080BD0C10DF9
:1013E0000723DB01C91840020905400A1143C2085E
:1013F0004007114370470020014670470122D20781
:10140000002800DB101A002900DB511A81427047C6
:101410000122D207002800DB101A002900DB511A34
:101420008842704710B5202A04DB0146203A9140DB
:10143000002010BD914020239C1A0346E34019432D
:10144000904010BD002904DA401C490001D1400839
:101450004000704770B40024050C05D1102400042E
:1014600002D1002921D01124050E01D10002083437
:10147000050F01D10001241D850F01D18000A41C9E
:10148000002801DB4000641C002908D020252E1B09
:101490000D46F540A14000D0012129430843010633
:1014A0001B1B000ADB1D02D5002070BC7047DB054A
:1014B000181880180029F8DA401C4900F5D170BCD2
:1014C0004008400070470000F0B507460846584005
:1014D00087B0C00F049048000E46590040084908E4
:1014E000BC1A884105D2384631461E4617460B467F
:1014F00002465800400810434CD0300D0390400580
:101500005900400D490D0590401A0290402872DAAA
:1015100018030121000B090508430190049800926B
:10152000002805D001995242002088410092019084
:10153000029840210A1A01990098FFF773FF0546A7
:101540000C466B4607CB00F097F9C0197141039A1E
:101550000E0D0023D71756401A467A40164344D042
:10156000049A002A2DD0029A012A039A15DC12054A
:10157000C01A914101263605001C7141D20F059E0B
:10158000D2070093019202962A46234600F094F96E
:1015900007B0F0BD38463146FAE71605224A0F4635
:1015A000B218C01AB74101210905001C4F410018AB
:1015B0007F41114618187941E20F10436D196441BB
:1015C00013E0E2076D0815436408C2071443039A49
:1015D00001261205C01A91413605001C7141CE0743
:1015E000400830434908C01851412A46234600F0BC
:1015F00056F9CDE7FFE7049801224000C117121AFF
:1016000000238B4104983146C417381AA141EEE7F4
:1016100030B40124E407634030BC55E730B4012402
:10162000E407614030BC4FE70000E0FFF0B51FB4B5
:1016300088B00B990998002448400999C00F4900C7
:1016400049080991C0070B990090490049080B917E
:1016500009990898A64608431CD00B990A98084394
:1016600018D0099801244000420D4800410D099806
:1016700024050003000B204309900B980003000B86
:1016800020430B9050181C4940180022019014462A
:10169000104605E0002001460DB0F0BD032801DA38
:1016A000034600E003239C46C11A0AAE0AE05F002D
:1016B00008ADED5B4F00F75B7D430027AA187C4126
:1016C000491C5B1E6145F2DD410004AB5A52210406
:1016D000120C0A43240C401C0828DFDB01980290FE
:1016E0000099704601910090059B049A079906980D
:1016F00000F0E2F8D0E700000DFCFFFFF0B50C466B
:101700005C4085B0E40FE40703944C0000266408B5
:1017100059009446490802460296224321D0624667
:101720000A431ED06200570D4A000E032303550DD5
:10173000012402462C492405781B1B0B360B40184C
:1017400023432643614600901C46501AB44103D3FC
:101750000098401C009002E0921800985B4100281D
:1017600003DA0020014605B0F0BD00200121090583
:101770000746864611E064461D46141BB54106D354
:101780006546521BB341744607430C43A646CD073A
:1017900040084908284392185B4105460D43EAD1A9
:1017A0001046184313D06046194650407140084314
:1017B00006D06046101AB34106D20122002306E08B
:1017C00000220123DB0702E00122D24353100098DC
:1017D00074460105381C6141029C039D0019694152
:1017E00000F05DF8BFE70000FD0300004A000903B8
:1017F0000123090B1B0519430A4B10B5520D9A42E0
:1018000002DA0020014610BD064B34339A4203DC55
:101810009A1AFFF7ABFC10BD034BD218FFF702FE7C
:1018200010BD0000FF030000CDFBFFFF10B5002935
:1018300004DB0124E40740428C412146002B04DBF9
:101840001C460123DB075242A341994200D190423A
:1018500010BD0000064C0125064E05E0E36807CCEC
:101860002B430C3C98471034B442F7D3FFF724FCC9
:10187000143600083436000810B5202A06DBCB17D2
:101880000846203A1041C1170B4306E00B461341AE
:10189000D0402024A21A91400843194610BD10B52B
:1018A000002B08DA0024401C614192185B411A4366
:1018B00001D14008400010BDF0B51FB482B005460C
:1018C0000C0003D0084600F04DFF02E000F04AFF94
:1018D00020300246009021462846FFF7A3FD049BD6
:1018E000059A04460F4618431143084314D018467E
:1018F00010431BD0009840210A1A18460599FFF79B
:1019000035FC05460E46009A05990498FFF78AFDB6
:10191000084305D0012004E02046394607B0F0BD59
:101920000020C11705430E432C43374300990E98FE
:101930006305401A7905E40A00220C43FD0A0A30C7
:1019400002D500200146E9E70105101969410C9C08
:101950000D9D00196941FFF7A2FFDFE772B600F0A5
:10196000B7FAFCE706490020C8610648016904226D
:101970001143016101694022114301617047000078
:10198000F009002000200240064A0021D1610649EA
:101990000A6902231A430A61486108694022104318
:1019A00008617047F00900200020024010B5054B87
:1019B0000022DA61044A1369012423431361018080
:1019C00010BD0000F00900200020024010B50B4AB5
:1019D0000020D168CB060A4904D5C8690223184300
:1019E000C8611020D3685B0705D5CB690124234368
:1019F000CB6104210843D06010BD000000200240EC
:101A0000F009002070B5054600F00AFA0646104CB1
:101A10000AE0681C08D0002D04D000F001FA801BF9
:101A2000A84201D9032070BDE068C007F1D1E06889
:101A3000800601D52020E060E068C00602D4E0689E
:101A4000400703D5FFF7C2FF012070BD002070BD25
:101A50000020024070B500F061FA224C206120693C
:101A6000E1682546401A2C351F4A2968914205D85D
:101A70001E4A914202DC7F21C9052960617A002952
:101A800000D04042FFF77BFC2968FFF73AFC606119
:101A90002079002803D0606900F0CEFB6061607996
:101AA000134D002811D06169E0788200401CA950D4
:101AB000C0B2E0706179884201D30020E0706179A2
:101AC0000B4801F008FB606170BDA0694000000E8A
:101AD000FAD02868A269616901F040FB6061606921
:101AE000286070BDD4000020CDCC4CBDCDCC4C3D89
:101AF000CC05002070B5044600F092F90546601C44
:101B000002D004480078241800F08AF9401BA04253
:101B1000FAD370BD0C010020F8B5054623480F46E6
:101B2000017E012601290BD0012101762868204C75
:101B3000012807D02046FFF765FF002813D030E0CA
:101B40000220F8BD2046FFF75DFF002829D1FFF7EE
:101B500009FF2046FFF756FF064616480169042292
:101B6000914301611DE00020C04338606C6812E0C1
:101B70002046FFF709FF0E48FFF744FF06460D48D1
:101B8000026902218A430261002E01D03C6008E014
:101B9000012080022418A868810268680818A04201
:101BA000E6D80248002101763046F8BDF009002051
:101BB00050C3000000200240034801698022114305
:101BC000016100207047000000200240F0B51FB402
:101BD00007461A480024017E15461E46012907D0F3
:101BE000012101761648FFF70DFF002803D020E001
:101BF000022005B0F0BD012F02D0022F00D0042733
:101C0000220128463146FFF7B1FA81B201986200FD
:101C10001018FFF7CBFE0A48FFF7F4FE09490A69DE
:101C2000520852000A61002803D1641CE4B2BC428D
:101C3000E6D3024900220A76DBE70000F009002023
:101C400050C3000000200240064900200A69120625
:101C500007D5054A4A60054A4A600969090600D560
:101C6000012070470020024023016745AB89EFCD7A
:101C7000F8B5002303240125BAE02E469E40B44661
:101C800032407CD00E79B607B60F012E01D0022E5D
:101C900017D186682746B6465E00B740009676465E
:101CA000BE43B646CF68009EB7407646374387604E
:101CB00046686746BE430F79FF06FF0F9F403743D4
:101CC00047600E79F643B6070ED0C6682746B4467D
:101CD0005E00B646B7406646BE43B4468F68764659
:101CE000B74066463743C7600E79B607B60F022E77
:101CF00014D1DE08B60036180096366A5F07B4467F
:101D0000FE0E0F27B646B7406646BE43B4460F697F
:101D10007646B74066463743009E376206682746D8
:101D2000B4465E00B646B7406646BE430F79B44639
:101D3000BF07BF0F7646B7406646374307604E6819
:101D4000B603B60F53D02D4FBE692E43BE61BE6998
:101D50009F08F607F60F2A4EBF00BE190096B66818
:101D60000F27B4469E07360FB646B7406646BE43B9
:101D70000927FF06B446B84202D1002710E036E03A
:101D8000204FB84201D101270AE01F4FB84201D1CC
:101D9000022705E01D4FB84201D1032700E00527C7
:101DA0007646B74066463743009EB760184EB66821
:101DB0004F689643FF0200D51643154FBE60FE687C
:101DC0004F689643BF0200D51643114FFE607E68F0
:101DD0004F689643BF0300D516430D4F7E603E68A3
:101DE0004F689643FF0300D51643094A16605B1CF3
:101DF0000A681646DE4000D03FE7F8BD00100240FA
:101E0000000001400004004800080048000C0048A1
:101E100000040140002A01D081617047816270474F
:101E200001488068704700000C010020024881686A
:101E300002788918816070470C01002010B50648AF
:101E40000168102211430160002000F007F800F043
:101E500027F8002010BD00000020024070B50446A5
:101E60000D4D7D202978C000FFF73AF901460B4857
:101E70000068FFF735F900F039F8002809D1042C83
:101E800007D200222146401E00F01EF800206C60A0
:101E900070BD012070BD00000C0100201801002061
:101EA00008B50848816901221143816181691140A7
:101EB0000091C26901040A43C261C06908400090F0
:101EC00008BD00000010024010B500F063FC10BD1A
:101ED000BFF34F8F04490348C860BFF34F8F00BF63
:101EE000FDE700000400FA0500ED00E0094910B527
:101EF000401E884201D9012010BD074C60610321BA
:101F0000081F00F047FC0020A0610720206100208E
:101F100010BD0000FFFFFF0000E000E0F8B5002664
:101F200069460E7009243546E40606E00120FFF7F5
:101F3000E1FD761CF6B2C82E1CD020698006F5D4CF
:101F400072B600214020A0616A00A0622369491C8A
:101F50009B06DB0F9D18C9B21829F4D3A0616A460D
:101F60001178491C1170A06201212846C90548401A
:101F700062B6F8BD0020F8BD00F02EFCF8B5424D69
:101F8000A868401CA860A868404900260827404C63
:101F9000884212D9204600F0FDF86068B9058843F0
:101FA000606020684008400020602068B8432060DE
:101FB00001F03AFA01F02EF9AE60A0690007C00FF7
:101FC000A0692FD0000CFE2108402978884226D134
:101FD0006888002808D001F009F969882D4800F0C8
:101FE000F1F96E8001F016F9A169012000040142A7
:101FF00009D1E0693843E06120680421084320608A
:102000000120E860F8BDA1690140814207D1E06983
:102010003843E0612068022108432060F8BDE06990
:10202000384305E0C006C00F04D0E0691021084322
:10203000E061F8BDA0698007C00F02D000F0E6FAA9
:10204000F8BDA0694007C00F02D000F0FBFAF8BD50
:10205000A0698006C00F15D0E06920210843E06127
:10206000A069C007C00F01D10120A06101F0BEF836
:102070006988084800F0A6F96E8001F0CBF8EE60A0
:102080002E61F8BDA069F8BDC0000020E02E000060
:10209000005400401C010020012108B549070E4AE8
:1020A000002083009B181B68401C08C1C0B2302868
:1020B000F7D30A4881690122114381618069104088
:1020C00000900748016889088900016001680322BF
:1020D0001143016008BD000000100008001002401C
:1020E00000000140F0B500244DE00123A3401A4058
:1020F00048D04B68012B01D0022B10D18E68856827
:10210000134653435F00DF19BD4373431D4385608E
:10211000CD680B6846689E436B431E4346600F695B
:10212000C668134653435D005D19AE435F433E43AB
:10213000C6604E68022E1FD1FF2A0ED817464A6984
:10214000066A94461A467A437A431701BF1ABE4379
:1021500067467A43164306620EE0160A3246724319
:102160004F6972437243BC461601B71A466ABE43B2
:1021700067467A43164346624A6806685343AE434D
:102180001E430660641C0A681346E340ADD100207C
:10219000F0BD00000146084A0020914209D10749DC
:1021A00001220B69520513430B610B6993430B61C9
:1021B00070470120704700000054004000100240AA
:1021C00030B502685208520002608C68CA68036821
:1021D0001F252D021202AB432243134303604A68BA
:1021E0000261026801231A43026083680122D2035C
:1021F000934383608C690B6985682343ED0AED0284
:102200001D4385600B69002B02D0836813438360F4
:102210000C68036803252D05AB43234303604B691A
:102220004168914319434160002030BD0149086075
:102230007047000018010020F1B52C4D2C4C6E6A3F
:1022400084B0716860680190FFF71EF800902768FD
:1022500031683846FFF718F80499FFF711F800992C
:10226000FFF70AF80090AD6A0198A968FFF70CF82B
:10227000029038466968FFF707F8019029680098CE
:10228000FFF702F80199FEF7A6FF0299FEF7A3FFF8
:102290000190676000982060F168E0680090FEF7A8
:1022A000F3FFB168A66807463046FEF7EDFF0199D7
:1022B000FEF7E6FF3946FEF7DFFF0746696900983B
:1022C000FEF7E2FF019030462969FEF7DDFF00903E
:1022D0003846E968FEF7D8FF0099FEF77CFF0199C0
:1022E000FEF779FFA760E66005B0F0BDD4000020DE
:1022F000DC090020F0B587B014216846FEF760FFC6
:102300002B484269012189050A43426142690A401A
:102310000592426949110A43426142690A400592A5
:10232000426949000A434261406909270840FF06A3
:102330000590002240213846FFF76CFD0022022163
:102340001C48FFF767FD03250024009569461A48DD
:1023500001950294FFF78CFC1F20009069460195BF
:1023600002943846FFF784FC2020009001946946CF
:1023700002943846FFF77CFC402001260090694615
:102380000196039502943846FFF772FC80206A4656
:1023900051C269463846FFF76BFC0220009069463F
:1023A0000196039502940348FFF762FC07B0F0BD65
:1023B00000100240000400480014004800F00CFA2D
:1023C00070477047F0B500228DB0894C00920192A1
:1023D0000292039201290BD01AD9027801251346E3
:1023E000403B4E1E032B7DD8052911D800215CE00F
:1023F0000178032903D87E480421103006E00A46FC
:10240000103A032A06D87A480421143000F01AFF43
:102410000DB0F0BD0A46403A032A03D8744804219F
:102420002C30F3E70A46603A032A09D871496069FB
:10243000FEF72AFFFEF7B5FF0C9004210CA8E5E794
:102440000A46703A0F2A02D810216B48DEE7FF29AE
:1024500015D0FE2917D0902918D080390229D7D855
:10246000227908A90A7062794A70A2798A70007884
:102470008321624A091A6A4489B28018C6E75C4817
:102480000121401CC2E701215948BFE758480121FA
:102490000930BBE743185C7804ABD7180B46403BC8
:1024A000FC546C461419E554491CB142F2DB6846F1
:1024B00001784F482C30002902D06946097C017010
:1024C00069464978002902D06946497C41706946CD
:1024D0008978002902D06946897C81706946C9786B
:1024E000002900E006E002D06946C97CC17000F016
:1024F00049FE8DE7FD2A09D0FF2A28D0502A35D081
:102500001346803B022B6CD8002342E04078012820
:10251000EFD1E571E0790028EBD0394C2046FFF788
:1025200039FE6068012149068843606020684008E0
:10253000400020602068082188432060BFF34F8F4F
:1025400031493048C860BFF34F8F00BFFDE7022913
:10255000CFD140780028CCD08028CAD22449491C49
:10256000087000F00FFE00F05FFF51E70229C0D1B4
:1025700040780028BDD025724AE7C1184D7804A9DB
:102580005718194680397D546F460125D7197D5457
:102590005B1CB342F1DB68460078002805D0684632
:1025A000007C002800D00120207168464078002877
:1025B00004D06846407C60710020E07068468078F6
:1025C000002896D06846807C002806D0A071FEF7CF
:1025D000E1FE0849FEF795FE01E00020A071A06130
:1025E00016E7902A85D10229BFD1407860720FE7A3
:1025F000D40000200000C842CC090020A0FFFFFF4B
:10260000005400400400FA0500ED00E00B480A49C0
:102610008288895C0A4A91628188491C818082880B
:10262000C38800219A4200D3818082884B23DB003B
:102630009A4200D38180704774030020C0000020BC
:10264000005400400848416A0948084A4388D15468
:102650004188491C418041884B22D200914201D3DC
:102660000021418070470000005400401C01002000
:10267000C000002010B5FFF7D9FB10BD10B52848E9
:10268000012102688A430A4302600168C907C90F31
:10269000FBD0244C2068012108432060206880077B
:1026A000C00FFBD02068F8218843802108432060B8
:1026B00005216068C9043D2212049043084360600C
:1026C000E06A00090001E062206801210906084370
:1026D000206020688001C00FFBD06068F021884333
:1026E00060606068072109028843606061680220B9
:1026F00089088900014361600C216068084008284E
:10270000FBD10948FFF792FD0020FFF7A7FB002847
:1027100001D0FFF723F9206B10218843206310BDFF
:102720000020024000100240006CDC0270470000F4
:102730000FB41CB50246002007AC00290BD0491E7F
:1027400001910092064B6A462146069800F01CF95A
:10275000009A002111701CBC08BC04B0184700008E
:10276000C13000082021020C01D010211046020ABD
:1027700001D010460839020901D01046091F82080D
:1027800001D01046891E420801D0881E7047081AE1
:10279000704700008307FF22DB0E9A408907090E6D
:1027A0009940002808DB830809489B001B1818681B
:1027B00090430843186070470007000F08388308EB
:1027C00004489B001B18D86990430843D8617047A0
:1027D00000E400E000ED00E0BFF34F8F0449034840
:1027E000C860BFF34F8F00BFFDE700000400FA058B
:1027F00000ED00E002E008C8121F08C1002AFAD16B
:1028000070477047002001E001C1121F002AFBD170
:1028100070470000F0B51FB486B00998089A030D00
:102820000021024314D05148514A1818504305144E
:102830001198012810981AD0281A401C00264D4FD4
:102840004D49009601910490002812DA444211E0AB
:102850001198012449A3012801D11098C143069879
:10286000119A84600360C26041600BB0F0BD4042C9
:10287000E4E70446210500203F4A001C5141039132
:10288000029012E0E00707D032463B4601990098DB
:10289000FEF7CCFE0191009032463B4610461946A9
:1028A000FEF7C4FE06460F466410002CEAD10498D9
:1028B000039B0028029A0999089806DAFEF7B6FEEB
:1028C000019B009AFEF7B2FE05E0FEF717FF019BA1
:1028D000009AFEF713FF04460E460022284BFEF72F
:1028E000A5FF03D80020C043014607E00022254B86
:1028F00020463146FEF7E8FDFEF778FF102409E098
:10290000002C0ADB0A220023FEF700FC079B303272
:102910001A55641E02460A43F2D11122641C079B19
:10292000121B1C19119B012B03D0012308430ED14C
:102930000AE0084304D0112010900020119077E79E
:102940001098151A6D1E0BE01098824202DD0023CC
:102950006D1C03E0824201DA00236D1E002BEED0D5
:10296000069811998260C16030C07EE701FCFFFFCC
:10297000104D0000000014400000F03F3000000047
:102980000000F0430000E03FFFB597B00646002589
:1029900018E2252877D100242746FD49049400E059
:1029A0000443761C32780120203A90400842F7D147
:1029B00030782A280ED00222307801463039092991
:1029C00016D804990A235943303940181443761C09
:1029D0000490F1E7189802C804911890002904DACD
:1029E0000120400304434842049002200443761C23
:1029F00030782E2814D1042004437078761C2A28BD
:102A000009D11898761C80C8189009E00A214F4314
:102A1000303FC719761C3078014630390929F5D97D
:102A200030786C2810D006DC4C281AD068280ED0DC
:102A30006A2817D104E0742813D07A2812D110E044
:102A40000120400504430CE00121090501E00321B8
:102A500009050C437178814203D101200005241837
:102A6000761C761C3078119066280BD013DC582821
:102A70007DD009DC00287BD04528F6D04628F4D04C
:102A800047281AD1A5E118E0632835D0642870D012
:102A9000652812D19DE170286CD008DC6728F1D040
:102AA00069287BD06E280DD06F2806D1BAE0732834
:102AB0002ED0752871D0782859D01A9A1999904734
:102AC0006D1C7EE16002400F022809D003280DD062
:102AD0000428189801680DD00D60001D189070E151
:102AE0001898EA1701680D604A60F6E718980168BF
:102AF0000D80F2E70D70F0E718986A4601781172C0
:102B0000001D18900020507202A80090012005E0DE
:102B1000189802C8189000200091C04361070DD595
:102B2000002101E00199491C0191B94212DA814268
:102B3000F8DB009A515C0029F4D10BE0002101E0A0
:102B40000199491C01918142FADB019A0099895C43
:102B50000029F5D1019904981A9B471A2146384655
:102B6000199A00F097FA0199401945180BE04FE0C7
:102B70002CE113E04EE0009800990078491C009188
:102B80001A9A199990470198401E0190401CF2D161
:102B9000214638461A9B199A10E137E00A20002195
:102BA000009001916002410F022907D0189A01CAD2
:102BB0001892C2179446032908D00AE01898C01D3D
:102BC000C108C90005C91891944607E000B2C217B0
:102BD0009446042902D140B2C1178C4600226146B6
:102BE000944506DA0A460021404291418C462D2147
:102BF00002E0210504D52B216A461173012103E06F
:102C0000E10701D02021F7E7029155E00A200AE010
:102C1000102008E0102000900021042004430191BE
:102C2000082703E008200021019100906002410F75
:102C3000022907D0189A01CA189200229446032943
:102C400008D008E01898C01DC108C90005C918912E
:102C5000944603E080B2042900D1C0B20021029161
:102C6000210729D51199702906D0009A1021019BBE
:102C70004A401A4305D00EE040216A4611730121F3
:102C800008E06146014306D030216A46117311996C
:102C9000517302210291009A0821019B4A401A4374
:102CA0000AD16146014301D1610705D530216A4649
:102CB000117301217F1E02911199582904D035A169
:102CC0000E910DA90D910DE037A1F9E76146019B29
:102CD000009AFEF71BFA0E9B8C469B5C0D9A521EC7
:102CE0000D92137061460143F0D10D9805A9081AA1
:102CF00020300190600703D501200004844300E0E8
:102D000001270198874201DD381A00E0002001996F
:102D100000904118029809180498401A0490E003A2
:102D200006D421461A9B199A049800F0B3F9451964
:102D3000002706E003A81A9AC05D199990476D1CF8
:102D40007F1C02988742F5DBE0030CD521461A9BD5
:102D5000199A049800F09EF9451904E01A9A302057
:102D6000199990476D1C0099481E00900029F5DCC8
:102D700008E00D980D990078491C0D911A9A19993F
:102D800090476D1C0199481E01900029F1DC63E118
:102D90000928010030313233343536373839616231
:102DA00063646566000000003031323334353637F5
:102DB00038394142434445460000000000F05AF9CA
:102DC0004519761C3078002800D0E2E528461BB073
:102DD000F0BD600700D406271898C01DC108C900BF
:102DE00048680A680831C30FDB071891190001D041
:102DF0009CA108E0210501D59BA104E0E10701D0D9
:102E00009AA100E09AA1430011985B0810916528EF
:102E10000CD006DC452809D046281DD0472841D1D2
:102E200041E0662818D067283CD13CE00021112FF2
:102E300001DB112000E0781C0191009008A911A885
:102E4000FFF7E8FC139905910021119A15927F1C58
:102E500012980197009150E00120C00703900120D3
:102E6000019008A9009711A8FFF7D4FC139A1499B0
:102E700005920022119B009212981593059A0192D7
:102E8000002901D0104602E0791C40180190381A40
:102E900001D5019804E04042401E0090781C01904A
:102EA000C01B029043E0012F00DA01270021112FFF
:102EB00001DD112000E038460191009008A911A819
:102EC000FFF7A8FC13990591119A00211298159209
:102ED0000091019721070CD40599B94201DB0199B2
:102EE00000E00191012904DD159A491E515C302949
:102EF00006D0B84201DA011D05DA0121029115E080
:102F00000199491EEDE7002805DC00994118009160
:102F10000199091A03E0019A411C914200DD0191D7
:102F20000099401A401C02900120C007039020071E
:102F300006D402990198814202DB0020C04302902E
:102F400000206946C87707AF012103980337C907F6
:102F5000884224D0022011902B2012900398002840
:102F60000CDA404203902D20129007E00A210398CA
:102F7000FEF7B6F830317F1E039039701199481E64
:102F800011900029F2DC03980028EFD1791E1298E5
:102F900008703078202108404530BF1E387006A8E0
:102FA000C01BC01D039010980078002800D001209D
:102FB000019941180298C017091803980918049834
:102FC000401A401E0490E00306D421461A9B199A29
:102FD000049800F05FF8451910980078002803D095
:102FE0001A9A199990476D1CE00324D521461A9B23
:102FF000199A049800F04EF845191CE00098002832
:1030000007DB00990598884203DD1598405C199903
:1030100001E0199930201A9A904700986D1C401CC5
:1030200000900298401E0290002804D11A9A2E2087
:10303000199990476D1C0199481E01900029DDDC0B
:1030400005E038781A9A7F1C199990476D1C0399EE
:10305000481E03900029F4DC21461A9B199A049813
:10306000ACE600002D0000002B0000002000000056
:1030700000000000F8B5044600251E4617468804E7
:1030800004D405E039462020B0476D1C641EF9D5F4
:103090002846F8BDFFB50446002581B01E46C8038A
:1030A00001D5302700E02027880404D505E0384604
:1030B0000399B0476D1C641EF9D5284605B0F0BDD4
:1030C0004A68002A06D00A68531C0B6010704868D2
:1030D000401E48607047F0B50446002087B000905D
:1030E00020680F4601900025029014E0AE00A05920
:1030F0000199FEF783F901D2A0590190A0590299D4
:10310000FEF786F901D2A0590290A1590098FEF766
:1031100062F86D1C0090BD42E8DB01990098FEF753
:10312000ABF80299FEF7A8F80446B81EFEF727F997
:1031300001462046FEF7E5F807B0F0BD0548064A0F
:103140000188914201D00020704740880028FBD0C0
:1031500001207047003C000855AA000070B50546E4
:1031600016461046FEF790F804467F203146C0050B
:10317000FEF782F82946FEF787F82146FEF72BF87E
:1031800070BD000010B500240821104800F026F999
:10319000002812D00D482F3801782F300170011F00
:1031A0000A7882704A78C2708A780271C97841714F
:1031B00004E0641C142C01D9002010BD0821034830
:1031C00000F0AAF90028F4D0012010BD040100206D
:1031D0000448054A0188914201D000207047408888
:1031E00070470000003C000855AA0000084801682C
:1031F0000822914301600168102291430160016837
:103200008022914301600168202291430160704750
:10321000005400400A48016801221143016001681E
:103220000822114301600168102211430160016806
:103230008022114301600168202211430160704720
:103240000054004010B50C464B21C9008C4201D9F6
:103250000C4601E0002C0AD0002808D00146224686
:103260000348FDF794FF034800218180C48010BD0E
:1032700074030020C000002010B500240821194864
:1032800000F0ACF8174A13462F3B111F00280AD054
:103290001078187090780870D0784870107988701D
:1032A0005079C87010BD262018700F4B0B6010703D
:1032B000002050700B7893704B78D3708B7813711B
:1032C000C97851719071D07104E0641C142C01D93B
:1032D000FEF7FEFD0821034800F01EF90028F4D097
:1032E00010BD0000040100200000C843C00700D04A
:1032F000012070471CB5FEF7CFFEFEF79FFDFFF7DC
:10330000BDF9FEF7F7FFFFF7B7FF00F08DF8FFF705
:1033100081FF0026294C2A4DFEF782FDE169884293
:103320000FD9FEF797FB6069FEF754F80191009002
:1033300024A20F212548FFF7FBF9FEF771FD5A3053
:10334000E061A078002803D12069E0600120A0702E
:103350001F480660217A002902D02169E1602672A7
:1033600006601C48006800280BD0FEF759FD216A52
:10337000884206D92868401C2860FEF751FD0A30B3
:10338000206228683228C7D9134F3846FEF702FF5B
:103390007868012149068843786038684008400011
:1033A0003860386808218843386000F03DF8FFF73E
:1033B00031FFFF20F530FEF79DFBADE7D400002084
:1033C000D0000020252E326600000000CC0900202D
:1033D000C8000020CC0000200054004030B50B464F
:1033E0000446FFF7ABFE002813D0FFF7F1FE0246BC
:1033F0000020094903E045182D792554401C9A42C4
:1034000001D2154600E01D468542F4DC9A4201D205
:10341000104630BD184630BD003C00080149400050
:1034200008707047C0000020F0B58FB01C2106A8BE
:10343000FDF7C6FE18216846FDF7C2FE2F4C012598
:1034400060696D04284360616069012628400D9021
:1034500060150090032002900420059002270920A7
:103460000197039604966946C006FEF73BFE2015B9
:1034700000900320029004200590092001970396F4
:1034800004966946C006FEF72DFEE1692801014356
:10349000E161E16901400D91194908680202120ACF
:1034A00000200A60174AA9011160174CE168E21375
:1034B0009143E16021681201914321602168A94391
:1034C00021601249124D06900890079109902978C1
:1034D0000B9049000A910C9006A92046FEF770FE59
:1034E0006068710608436060E0680A490840E0606F
:1034F0002878FFF793FF0FB0F0BD000000100240E6
:1035000014E400E000E100E0005400400B02000081
:10351000D500002001F8FFFFF0B506460C46081D57
:103520000121890285B0884203D8FEF78DFB00286F
:1035300002D0002005B0F0BD00200121294D0190EE
:10354000039100900295694601A8FEF7E5FA00286C
:103550003DD1254A002329460120FEF737FB0028EC
:1035600035D122460023A91C0120FEF72FFB00289D
:103570002DD1002567080FE0680082195178137873
:103580000A0218491A43091D411800230120FEF7B9
:103590001DFB00281BD16D1CAF42EDDC2046FFF760
:1035A000A5FE00280BD030192038C27F0D4800231B
:1035B000C01C21180120FEF709FB002807D10020BC
:1035C000084908E042181279335C9A4202D0FEF7AB
:1035D000F3FAAEE7401CA042F4DBFEF7EDFA01205F
:1035E000A8E70000003C000855AA0000833886BF09
:1035F000B59F973EB113A9BF2BFB213F86159E3B7C
:1036000086151E3C87159E3B0000803F0000004051
:103610000000803F34360008C00000205C0000003D
:10362000F4270008903600081C010020F40C00006C
:103630000428000800000000000000000000000056
:10364000000000000000000004000000010A0A0061
:10365000000000000000000000000000000000006A
:10366000000020410000000000000000EC350008D0
:10367000FC35000800000000000000000000000011
:1036800001000000040000000000000000127A00A9
:10369000FFFFFFFFFFFFFFFFFFFFFFFFFFFFFFFF3A
:1036A000FFFFFFFFFFFFFFFFFFFFFFFFFFFFFFFF2A
:1036B000FFFFFFFFFFFFFFFFFFFFFFFFFFFFFFFF1A
:1036C000FFFFFFFFFFFFFFFFFFFFFFFFFFFFFFFF0A
:103BF000FFFFFFFFFFFFFFFFFFFFFFFFC41B977EDD
:103C0000FFFFFFFFFFFFFFFFFFFFFFFFFFFFFFFFC4
:103C1000FFFFFFFFFFFFFFFFFFFFFFFFFFFFFFFFB4
:103C2000FFFFFFFFFFFFFFFFFFFFFFFFFFFFFFFFA4
:103C3000FFFFFFFFFFFFFFFFFFFFFFFFFFFFFFFF94
:00000001FF
